:03000000020026D5
:0C002600787FE4F6D8FD75812002006DA3
:10018900010C00C18002080000020D0000020A00F3
:010199000065
:1000B200D288D2A8D2AF120006C2B5E50C14600EE7
:1000C20014601F14603324037045D2B580EDD2B59D
:1000D2007F32120160C2B57F0A120160D2B57F324F
:1000E200800E12015CC2B57F0A120160D2B57F0A8E
:1000F200120160C2B57F0A801112015CC2B57F3263
:1001020012016012015CC2B57F3212016080ACD272
:03011200B580A80D
:03000300020115E2
:10011500C0E0C0F0C083C082C0D075D000C000C0B0
:1001250001C002C003C004C005C006C007C2A8E5DF
:100135000C045403F50CFF1201A4D2A8D007D00675
:10014500D005D004D003D002D001D000D0D0D082C9
:07015500D083D0F0D0E032AE
:10000600759850438E01438E0475D7E075D6FE432E
:070016008E10D2ACD2AF2224
:0801A4008F993099FDC29922E8
:0300230002019B3C
:09019B003098FDC29885990C32E0
:04015C00D2B57F0A8F
:10016000E4FEEEC39F5021E4FDEDC394027480943D
:10017000805012E4FCECC394197480948050030CFA
:0801800080F30D80E40E80DA2B
:010188002254
:100032000200B2E493A3F8E493A34003F68001F232
:1000420008DFF48029E493A3F85407240CC8C333CF
:10005200C4540F4420C8834004F456800146F6DF9E
:10006200E4800B0102040810204080900189E47EA4
:10007200019360BCA3FF543F30E509541FFEE49393
:10008200A360010ECF54C025E060A840B8E493A35A
:10009200FAE493A3F8E493A3C8C582C8CAC583CA85
:1000A200F0A3C8C582C8CAC583CADFE9DEE780BE3D
:01019A000064
:00000001FF
